:020000040000FA
:1000000080311C281C1108007E1480310B1F1A2817
:100010002100911C12282000911C122890315B2095
:1000200080311A282100111C1A282000111C1A28BE
:100030009031C8207E10090080311E28383084009D
:1000400021308500B830FE000030FF009031D42010
:100050008031F001F101F201F301F4014F3084002D
:10006000003085002130FE000030FF009031D420A8
:100070008031A0308400003085004F30FE00003019
:10008000FF009031D4208031203084000130850081
:100090004830FE000030FF009031D4208031A03085
:1000A0008400013085002E30FE000030FF009031CA
:1000B000D4207E102000893166292000C3013D082C
:1000C0009231ED22803155087405031976286B357D
:1000D000A43E860087016B35243E840001308500F4
:1000E000403F80070131413F803D3F316B35A43EA9
:1000F00086008701403FC400413FC5005508740594
:10010000031990286B35A43E860087016B356C3E41
:1001100084008501403F80070131413F803D3F31F0
:100120006B35243E860001308700403FBC00413FD4
:10013000BD006B08BE00BF01BE35BF0D52303E078B
:10014000840098303F3D8500003FC000013FC10062
:100150004108803AC2003D08803A4202031DB2289D
:100160003C0840020318B628053042292000450803
:10017000803ABC0080303C02031DC028303044026D
:10018000031C442920004508803ABC0080303C0212
:10019000031DCC285F3044020318052920004508C0
:1001A000803ABC0080303C02031DD82856304402FF
:1001B000031C052920006B08B03E8600870101085A
:1001C000031DE8286B08B03E860087018101810A83
:1001D0002100CD01CD0A20006B08513E8600870129
:1001E0008101810A0230BC006B08B43E86008701A1
:1001F0003C0881070230BC006B084F3E8600870137
:100200003C088100C301C30A302A20006B08513E1C
:100210008600870102300106031D41296B35A03E8F
:1002200086008701403FBC00413FBD0044083C07B9
:10023000BE0045083D3DBF003F08803AC000803009
:100240004002031D25295F303E020318412920008A
:100250006B35A03E86008701403FBC00413FBD009A
:1002600044083C07BE0045083D3DBF003F08803ABA
:10027000C00080304002031D3F2956303E02031863
:10028000E828033020002D2A20004508803ABC00D1
:1002900080303C02031D4E2930304402031865298A
:1002A00020004508803ABC0080303C02031D5A29DA
:1002B0002B304402031C652920006B08B03E8600E9
:1002C00087010108031D062A002A20004508803AFC
:1002D000BC0080303C02031D6F292B304402031800
:1002E000302A20006B08B03E860087010108031900
:1002F000302A6B08513E860087010103031DBA298D
:100300004508803ABC0080303C02031D8929033037
:100310004402031CAB2902302000BC006B08513E94
:10032000860087013C0881000130BC006B08B23EAA
:10033000860087013C0881076B084F3E86008701D5
:100340008101810A6B35A03E860087014408C03FC9
:100350004508C13F022901302000BC006B084F3E18
:10036000860087013C0881076B084F3E86008701A5
:100370000330292A6B08513E8600870102300106AE
:10038000031D41296B35A03E860087014408810783
:1003900041314508813D7F314508803ABC008030BD
:1003A0003C02031DD52904304402031C1B2A2000F3
:1003B0006B35A03E86008701403FBC00413FBD0039
:1003C0003D08803ABE0080303E02031DE9293030EE
:1003D0003C0203188B2920006B35A03E8600870164
:1003E000403FBC00413FBD003D08803ABE00803028
:1003F0003E02031DFD292B303C02031C8B292000EB
:100400006B08B03E860087018101810A6B08513E6E
:10041000860087018101810A0130BC006B08B43E6F
:10042000860087013C0881076B084F3E86008701E4
:100430008101810A022901302000BC006B084F3E77
:10044000860087013C0881076B084F3E86008701C4
:100450000A300102031841290230BC003C08C300E5
:1004600020006B08B43E8600870108300106031D9A
:10047000422A6B08B23E860087010103031D422A0F
:100480000430622A6B08B43E8600870109300106F9
:10049000031D512A6B08B23E860087010103031930
:1004A000402A6B08B43E860087010A300102031817
:1004B000612A6B08B23E8600870102300102031CEC
:1004C000652A0330BC003C08C3000530430603190D
:1004D000EF2B4308031D7D2A5D30A0000030A100F2
:1004E0006B089031BD208031550874050319EF2B3E
:1004F0006B08903189208031EF2B03304306031DB8
:100500009C2A6B088E311A2680315D30A0000030A5
:10051000A1006B089031BD20803155087405031986
:10052000962A6B08903189208031EF2B7408BC002B
:100530003C082100CF04EF2B21004F087405031D58
:100540005A2B4D03031D0A2B01302000BC006B0801
:10055000BA3E860087013C0881076B356C3E8600F9
:100560008701403FBC00413FBD003C08D33E210015
:10057000ED00FF3020003D3D2100EE00ED30200079
:10058000A6000030A7006B08BC00BD01BC35BD0D46
:1005900056303C07840098303D3D8500003FA80060
:1005A000013FA90088310B2080316B35283E860041
:1005B00001308700403FBC00413FBD003C08860041
:1005C0003D08870021006D08C03F6E08C13F200034
:1005D0006B35283E860001308700023081074131AB
:1005E0000318810A6B08513E860087010108BC0090
:1005F0006B08B83E8600870101088600013087003D
:100600003C0881000130BC006B08B83E86008701C1
:100610003C08810701302000BC006B08BA3E860010
:1006200087013C0881076B356C3E860087016B357E
:10063000283E840001308500003FBC00013FBD0022
:100640003C0884003D088500403F803F413F813F9A
:100650006B35283E8600013087000230810741312A
:100660000318810A6B08513E860087010108BC000F
:100670006B08B83E860087010108860001308700BC
:100680003C08810002304306031D522B0A30BC0097
:100690006B08B83E8600870101088600013087009C
:1006A0003C0881070130BC006B08B83E860087011A
:1006B0003C088107043020004306031DB02B6B0863
:1006C0008F315A2780316B088E31BA2680316B0802
:1006D0008C31742480316B0893318E23803120005B
:1006E0005508740503199F2B6B08303E86000130B6
:1006F000870005300106031D8C2B6B08031D862B1C
:1007000030302200E4000030E500942B303022002D
:10071000E6000130E700942B6B35643E8600013023
:1007200087000030C03FC13FD7302000A000153007
:10073000A1006B08903193208031A001AB2B5408AD
:1007400074050319EB2B7409BC003C08D405043074
:10075000BC003C08A0006B088D3185258031EB2B57
:100760005D30A0000030A1006B089031BD208031C9
:10077000550874050319C12B6B089031892080310D
:10078000EF2B540874050319EF2B21004F08740553
:100790000319EF2B20006B08513E860087010103EF
:1007A000031DEF2B4303031DEF2B6B088C31F72444
:1007B00080316B088E311A2680310430BC003C0831
:1007C000A0006B088D318525803174092000BC00A4
:1007D0003C082100CF0520006B089331D72320006F
:1007E0006B35A43E860087010030C03FC13F210029
:1007F000CD01080021005503031D322CD5010C0842
:10080000F70077082000E10021000D08F7007708C5
:100810002000E00021000E08F70077082000DF002C
:10082000FD30F7007708E105C130F7007708DF05F4
:100830005E085B04F7007708E1045D085A04F700DE
:100840007708E0045C085904F7007708DF046108C2
:1008500021008C002000600821008D0020005F082E
:1008600021008E005603031D6E2CD60122000C08B9
:10087000F70077082000EA0022000D08F70077084B
:100880002000E90022000E08F70077082000E800A9
:10089000CD30F7007708EA055F30F7007708E90503
:1008A000F130F7007708E80567086404F700770877
:1008B000EA0466086304F7007708E904650862043F
:1008C000F7007708E8046A0822008C002000690815
:1008D00022008D002000680822008E002100521C9A
:1008E000792CFE30F7007708D20500309531342599
:1008F00083312100D21C842CFD30F7007708D2050B
:1009000001309531342583312100541C8F2CFE3069
:10091000F7007708D4050030953183258331210015
:10092000D41C9A2CFD30F7007708D405013095319E
:10093000832583312100531CA52CFE30F700770856
:10094000D30500309331C42383312100D31CB02C54
:10095000FD30F7007708D30501309331C42383318C
:100960002000561C4B2D0130F70077082100EA07C4
:100970006A086706031D4B2D0130F7007708F3075F
:100980001A307302031C2D2D20005318F22C54082A
:100990005504F70021004E087704F800781CF22C6B
:1009A0000130A4070030A53D3C080319EB2C56305C
:1009B000840098308500003FF700013FF8002508CB
:1009C000803AF9007808803A7902031DE92C77080B
:1009D0002402031CF22CFE30F70077082000D60515
:1009E000210050142100400841040319132DFF3049
:1009F000C007FF30C13D4108803AF70080307702E0
:100A0000031D042D013040020318132DFE30F700A2
:100A100077082000D305FE30F7007708D6052100BF
:100A20005914C001C1012100581C212DFE30F700CE
:100A30007708D805FE30F70077082000D60521009A
:100A4000591420005808F70077082100EA006508CB
:100A5000F7007708F300BC01362D4A084B04031950
:100A6000362D4B088A004A080A0085311930730276
:100A70000318462D7308353E840098300318013E54
:100A800085000008F700770821004A2D21006C0836
:100A9000F7007708E7002000D61CE42D0130F700AE
:100AA00077082100E90769086606031DE42D013077
:100AB000F7007708F2071A307202031CC62D2000D7
:100AC000D3188D2D54085504F70021004E087704E3
:100AD000F800F81C8D2D0130A6070030A73D3D0819
:100AE0000319862D5830840098308500003FF700A8
:100AF000013FF8002708803AF9007808803A790227
:100B0000031D842D77082602031C8D2DFD30F70070
:100B100077082000D6052100D01421003E083F04AC
:100B20000319AE2DFF30BE07FF30BF3D3F08803AAE
:100B3000F70080307702031D9F2D01303E0203181D
:100B4000AE2DFD30F70077082000D305FD30F7000B
:100B50007708D6052100D914BE01BF012100D81C99
:100B6000BC2DFD30F7007708D805FD30F700770879
:100B70002000D6052100D9146808F7007708E9009D
:100B80006408F7007708F200BD01CF2D480849043A
:100B90000319CF2D49088A0048080A008531193009
:100BA00072020318DF2D72081C3E8400983003186F
:100BB000013E85000008F70077082100E32D2100A1
:100BC0006B08F7007708E60020005608031D0800B0
:100BD000803102200800BA000130B0003A0AF12D3D
:100BE000B035890BF02D3008B1003108B7003A0854
:100BF000031D172E570837050319092E3A356C3E89
:100C00008600870121004008810241314108813B73
:100C1000132E3A356C3E860087012100400881077B
:100C200041314108813D7F31C001C101332E570858
:100C300037050319262E3A356C3E860087012100C0
:100C40003E08810241313F08813B302E3A356C3EEF
:100C50008600870121003E08810741313F08813D20
:100C60007F31BE01BF0120003A356C3EA600003046
:100C7000A7003A08B000B101B035B10D56303007C9
:100C800084009830313D8500003FA800013FA90055
:100C900088310B208531A001A00A3A089431E9245B
:100CA00085313A356C3E860087013A35643E8400D2
:100CB00001308500403F0002B8000131413F003B58
:100CC000B900B91F772E3A08B000B101B035B10DA7
:100CD0005630300784009830313D8500003FB20027
:100CE000013FB3003208B8073308B93D612E390817
:100CF000B1003808B000B035B10D3A08B200B30108
:100D0000B235B30D5630320784009830333D85003C
:100D1000003FB400013FB5003508803AB600310805
:100D2000803A3602031D962E300834020318B32E83
:100D30002000A0013A089431E92485313A08B00036
:100D4000B101B035B10D5630300784009830313DD7
:100D50008500003FB200013FB30038083202B800FE
:100D60003908333BB90020003A35A83E8600870198
:100D70003808C03F3908C13F3A088831C22008000E
:100D80002000C801C80A3D08031DCD2E21004108DE
:100D90002000C70021004008D32E21003F0820007A
:100DA000C70021003E082000C6003D356C3E86008D
:100DB00087014608810241314708813B7F313D353B
:100DC0006C3EA6000030A7003D08BE00BF01BE3546
:100DD000BF0D56303E07840098303F3D8500003FF0
:100DE000A800013FA90088310B2086313D356C3EBB
:100DF00086008701403FC900413FCA00CB01412F17
:100E00001730BE003E08A0003D089231DC2286313A
:100E1000A03E4B07BF003F0886000130870001035A
:100E2000031D3D2F0130CC070030CD3D3D08BE00F5
:100E3000BF01BE35BF0D56303E07840098303F3DA0
:100E40008500003FC000013FC1004D08803AC2004C
:100E50004108803A4202031D2F2F40084C02031C18
:100E6000342F2000CC01CD0120004D084A06031D7F
:100E70003B2F4C0849060319782F0130BE003E086D
:100E8000CB073D08B63E8600870101084B020318D8
:100E9000792F4B08BE00BF01BE35BF0D3D08C00015
:100EA000C1014008A0004108A1002E30A20000307E
:100EB000A3009531682586313830C2002130C30047
:100EC00020084207C4002108433DC5003E084407EE
:100ED00086003F08453D8700403FCC00413FCD00A4
:100EE0004D084A06031D762F4C084906031D002FA6
:100EF000C80148080319802F3D089731452708008D
:100F00003D089331D723080021005E03031DBC2F49
:100F1000DE010C08F80078082000E10021000D082F
:100F2000F80078082000E00021000E08F80078089A
:100F30002000DF00FD30F8007808E105C130F8003E
:100F40007808DF055E085B04F8007808E1045D08B6
:100F50005A04F8007808E0045C085904F80078089E
:100F6000DF04610821008C002000600821008D0052
:100F700020005F0821008E0062080319C42F013091
:100F8000E20220009212121321005D18C92FDD1C0D
:100F9000D32FFC30F8007808DD056208031DD32F3D
:100FA0009031ED208731440845040319E82F0130C2
:100FB000C4020030C53B44084504031DE82FDB0193
:100FC000DC01DC0AC830C2001730C300DF01E001D9
:100FD0000130F8007808E007043060060319E001EA
:100FE00060085F06031D0800420843040319080057
:100FF00043088A0042080A008731080018100800D8
:10100000943022009100200092129430220093002C
:1010100020001213080028082904031908002608D4
:10102000860027088700403FAA00413FAB002B08FD
:10103000803AAC002908803A2C02031D2128280898
:101040002A02031C3928200026088600270887006A
:101050002808810241312908813B7F310F28260869
:101060008600270887002808810741312908813D2B
:101070007F3120002608860027088700403FAA000D
:10108000413FAB00AB1F08002F28A3002008031D21
:1010900053282108313EA2002308C63E860087015E
:1010A0002208810008002003031D79282308031D5E
:1010B00075284D308400983085000008A200210872
:1010C000220203186C282108A2002308C63E8600CD
:1010D00087012208810008005B30A2002308C63E79
:1010E000860087012208810008003430840098308F
:1010F0005C284F30A2002308C63E860087012208E4
:101100008100080001302000BE003D0A8828BE355D
:10111000890B87283E08BF003F08C00053084005E0
:10112000031DA4280230BE003E08A0003D088D31FA
:101130008525883102302000BE003E08A000A101B4
:101140003D088831452088310130AD000030AE00C7
:101150003D089631B12688313D088531EB2588312F
:101160002000540853044005031DBE28C030A000D1
:101170000630A1003D089031BD2088313D089031F6
:1011800089200800AF000130AD002F0AC828AD3516
:10119000890BC7282D08AE002E08F4002100510845
:1011A0007405031908002000570874050319E7287F
:1011B0002F35A83E860087012F356C3E84008501BF
:1011C000403F80070131413F803D3F31F9282F35B5
:1011D000A83E86008701403FAD00413FAE002F355D
:1011E0006C3E860087012D08810241312E08813B2B
:1011F0007F312F356C3EA6000030A7002F08AD00D0
:10120000AE01AD35AE0D56302D07840098302E3D21
:101210008500003FA800013FA90088310B2008008D
:10122000A3002400951A080020002308A000A101B3
:10123000A035A10DA035A10D5B30200784009830AA
:10124000213D850000082400940020002308A00010
:10125000A101A035A10DA035A10D5A3020078400B1
:101260009830213D8500000824009500960120005B
:101270002308A000A101A035A10DA035A10D5C306F
:10128000200784009830213D85000008240092004A
:1012900020002308A000A101A035A10DA035A10DBB
:1012A0005D30200784009830213D85000008A200B1
:1012B000A20EA20DA20D21000D0820002206BF39AA
:1012C000220621008D002400951608009331FF238B
:1012D00089318731FE278931FA30A0000330A1001F
:1012E0009031792089318B170B1700309231CB2246
:1012F000893101309231CB2289312000A001A00A2E
:1013000000309431E92489315030B0000030B10010
:1013100000309031FA2089312000A0010030953151
:101320001B258931A00129302300CE004E08200062
:10133000A1000030883145208931A001A00A013088
:101340009431E92489317830B0000030B1000130A7
:101350009031FA2089312000A001013095311B2500
:101360008931A00129302300CE004E082000A100C1
:101370000130883145208931003090318920893110
:101380000130903189208931003089311021893133
:101390009331A0238931C82921000C08F500750874
:1013A0002000E10021000D08F50075082000E00094
:1013B00021000E08F50075082000DF00FD30F50063
:1013C0007508E105C130F5007508DF055E085B04AE
:1013D000F5007508E1045D085A04F5007508E0049D
:1013E0005C085904F5007508DF04610821008C00D1
:1013F0002000600821008D0020005F0821008E0081
:1014000022000C08F50075082000EA0022000D08F3
:10141000F50075082000E90022000E08F5007508A7
:101420002000E800CD30F5007508EA055F30F500D2
:101430007508E905F130F5007508E80567086404EA
:10144000F5007508EA0466086304F5007508E90408
:1014500065086204F5007508E8046A0822008C003B
:101460002000690822008D002000680822008E00FC
:10147000080021000C082000A0002008E100210045
:101480000D082000A0002008E00021000E08200028
:10149000A0002008DF00FD30A0002008E105C130D9
:1014A000A0002008DF055E085B04A0002008E1041E
:1014B0005D085A04A0002008E0045C085904A0005C
:1014C0002008DF04610821008C0020006008210052
:1014D0008D0020005F0821008E0022000C082000F3
:1014E000A0002008EA0022000D082000A00020082B
:1014F000E90022000E082000A0002008E800CD30FE
:10150000A0002008EA055F30A0002008E905F130BE
:10151000A0002008E80567086404A0002008EA0489
:1015200066086304A0002008E90465086204A000BE
:101530002008E8046A0822008C00200069082200C4
:101540008D002000680822008E0008000B1355183B
:10155000AE2A21002808290403190F2B2100460870
:101560002000A00020082100EC002000571CD72AF2
:10157000701CCB2A711CC12A23302100CA001130F3
:10158000C52A32302100CA001130CB002000D8011A
:101590002100E501ED2A711CD22A41302100CA0048
:1015A0001130E22A50302100CA001130E22A711CA9
:1015B000DE2A5F302100CA001130E22A6E3021009D
:1015C000CA001130CB0031302000A0002008D80024
:1015D0001630A00020082100E5002000561458080D
:1015E000A00020082100EA0065082000A0002008D3
:1015F000F3007308353E840098300318013E8500DF
:101600000008A00020082100E7002908C1002808E0
:10161000C000A801A90190314C208A31142BFE3062
:101620002000A0002008D3050B1708000B13D518C5
:101630001E2B21002A082B040319812B21004708A7
:101640002000A00020082100EB002000D71C452B23
:10165000F01C392BF11C312BD7302100C800113080
:10166000352BE6302100C8001130C900E801E40143
:101670005D2BF11C402BF5302100C8001130502BA0
:1016800004302100C8001230502BF11C4C2B1330B9
:101690002100C8001230502B22302100C800123027
:1016A000C90031302000A00020082100E8001630D9
:1016B0002000A00020082100E4002000D614210012
:1016C00068082000A00020082100E900640820002C
:1016D000A0002008F20072081C3E84009830031815
:1016E000013E85000008A00020082100E6002B082C
:1016F000BF002A08BE00AA01AB0190314C208B31FB
:10170000862BFD302000A0002008D3050B17080011
:101710004C082000C0004008C400F030C000400861
:10172000C40521004C082000C0004008C3000F3051
:10173000C0004008C305B0304406031DA12BC401FE
:10174000AC2BC0304406031DA82BC401C40AAC2B2B
:10175000FF30C0004008C4000E30430203180800E8
:10176000440A0319080006304306031DCC2B440825
:10177000C0004008BD004308C100C201C135C20D10
:101780000030410784009830423D8500013F8A00C7
:10179000003F0A008B31080044089331EA238B3163
:1017A000003A0319E62B4308C000C101C035C10D42
:1017B0000030400784009830413D8500003FA00084
:1017C000013FA10044089031932008004408C00064
:1017D0004008BD004308C100C201C135C20D003040
:1017E000410784009830423D8500013F8A00003F58
:1017F0000A008B3108002100501C172CFE302000FD
:10180000CE004E082100D005220020082104031933
:10181000172C2108EF002008EE00A001A1012000F4
:10182000BD0122006F088A006E080A008C31210079
:10183000D01C342CFD302000CE004E082100D005F5
:101840002200220823040319342C2308EF00220865
:10185000EE00A201A3012000BD01BD0A22006F0815
:101860008A006E080A008C312100591C532CFE306E
:101870002000CE004E082100D9052C082D040319A4
:10188000532C2D082200EF0021002C082200EE002E
:101890002100AC01AD012000BD0122006F088A00CB
:1018A0006E080A008C312100D91C0800FD30200090
:1018B000CE004E082100D9052E082F040319080078
:1018C0002F082200EF0021002E082200EE00210048
:1018D000AE01AF012000BD01BD0A22006F088A00E1
:1018E0006E080A008C310800B600B7013708A60060
:1018F000A701A635A70D3608A800A9012808A00051
:101900002908A1002E30A2000030A30095316825DF
:101910008C319430AA002130AB0020082A07AC009B
:1019200021082B3DAD0026082C07860027082D3DF9
:1019300087003708AE00AF01AE35AF0D3608B000F6
:10194000B1013008A0003108A1002E30A200003003
:10195000A300953168258C313830B2002130B300B6
:1019600020083207B4002108333DB5002E083407A3
:1019700084002F08353D8500403F803F413F813F37
:101980001730A6002608A00036089231DC228C31E0
:10199000323E3707A700270886000130870001087C
:1019A000A8001730A9002908A00036089231DC22CF
:1019B0008C31A03E3707AA002A0886000130870034
:1019C000280881000130A6002608B7071730370223
:1019D000031C762C3608BA3E860087010108A60053
:1019E0003608B63E86008701260881000800B1004F
:1019F000B0013108B63E86008701010830020318A5
:101A000008001730A6002608A00031089231DC2219
:101A10008C31A03E3007A7002708860001308700E0
:101A20000103031D7F2D3008A600A701A635A70DD1
:101A30003108A800A9012808A0002908A1002E301B
:101A4000A2000030A300953168258C313830AA00FF
:101A50002130AB0020082A07AC0021082B3DAD0047
:101A600026082C07860027082D3D870031356C3E5F
:101A700084008501403F0002AE000131413F003B40
:101A8000AF00AF1F482DAE09AF09AE0A0319AF0A68
:101A90002F08803AA60080302602031D512D1730F2
:101AA0002E0203187F2D20003008A600A701A635BE
:101AB000A70D3108A800A9012808A0002908A10045
:101AC0002E30A2000030A300953168253830AA00DE
:101AD0002130AB0020082A07AC0021082B3DAD00C7
:101AE00026082C07860027082D3D870031356C3EDF
:101AF00084008501403F803F413F813F0800013025
:101B00002000A6002608B007F92CA3000130A10090
:101B1000230A8B2DA135890B8A2D2108A2002208CA
:101B2000F4002008A1002308303E86000130870021
:101B300021088100FD2D7409A1002108F005740918
:101B4000A1002108D5057409A10021082100CE05B6
:101B500074092000A1002108D4057409A1002108FE
:101B60002100CF0574092000A1002108D305080039
:101B70007408A1002108F0047408A1002108D5040C
:101B80007409A10021082100CE0574092000A100DC
:101B90002108D4057409A10021082100CF0574098A
:101BA0002000A1002108D30508007408A100210825
:101BB000F0047409A1002108D5057408A1002108CA
:101BC0002100CE0408007408A1002108F004740963
:101BD000A1002108D5057408A1002108D40408003B
:101BE0007409A1002108F0057409A1002108D50598
:101BF0007408A1002108D30408002008A100A20154
:101C00002208003A0319052E192E2108003A03195B
:101C10009B2D013A0319B82D033A0319D52D013A2A
:101C20000319E32D073A0319F02D013A0319B82DD2
:101C3000192E0800AF002100CD0120002F35A43E51
:101C4000860087010030C03FC13F2F08B43E8600A8
:101C5000870181012F08B23E8600870181012F088C
:101C6000B03E8600870181012F08513E8600870122
:101C700081012F084F3E8600870181012F35A03E4C
:101C8000860087010030C03FC13F2F08BA3E860062
:101C900087018101AE012E08A600A701A635A70D78
:101CA0002F08A800A9012808A0002908A1002E30AB
:101CB000A2000030A300953168258E319430AA002F
:101CC0002130AB0020082A07AC0021082B3DAD00D5
:101CD00026082C07860027082D3D87000030C03FCE
:101CE000C13F1730A6002608A0002F089231DC2241
:101CF0008E31323E2E07A70027088600013087006C
:101D000081010130A6002608AE0717302E02031C01
:101D10004B2E2F08A600A7012608A0002708A10027
:101D20002E30A2000030A300953168258E3194300A
:101D3000A8002130A90020082807AA002108293D71
:101D4000AB002F35283E8600013087002A08C03FAF
:101D50002B08C13F1730A6002608A0002F0892319B
:101D6000DC22323EA7002F08B83E860087012708F4
:101D700081000800B8003835603E860001308700D9
:101D8000403FAD00413FAE0038356C3E86008701D4
:101D90002D08810241312E08813B7F3138356C3E60
:101DA000A6000030A7003808AD00AE01AD35AE0D7D
:101DB00056302D07840098302E3D8500003FA80046
:101DC000013FA90088310B208E31B7013808BA3E97
:101DD0008600870101083702031808003835603E85
:101DE000860001308700403FAD00413FAE0037081C
:101DF000AF00B001AF35B00D3808B100B201310805
:101E0000A0003208A1002E30A2000030A3009531BE
:101E100068258E319430B3002130B4002008330798
:101E2000B5002108343DB6002F083507860030087C
:101E3000363D87002D08810241312E08813B7F31DC
:101E40003708AD00AE01AD35AE0D3808AF00B001BA
:101E50002F08A0003008A1002E30A2000030A300FF
:101E6000953168258E319430B1002130B2002008C0
:101E70003107B3002108323DB4002D083307A60016
:101E80002E08343DA7003808B500B601B535B60DAB
:101E90005630350784009830363D8500003FA80055
:101EA000013FA90088310B208E310130AD002D0893
:101EB000B707E62EB800B7011730AD002D08A00017
:101EC00038089231DC228F31323E3707AE002E08BF
:101ED0008600013087000108AF00B0012F08B5006F
:101EE0003008B6000130AD002D08B70702303506C6
:101EF0003604031D5C2F1730AD002D08A0003808F4
:101F00009231DC228F31323E3707AE002E08860038
:101F1000013087000108AF00B0012F08B50030087C
:101F2000B600350336040319A32F0130AD002D0888
:101F3000B7073808BA3E8600870137080102031840
:101F40007B2FB7017B2F3708AD00AE01AD35AE0D4D
:101F50003808AF00B0012F08A0003008A1002E30D3
:101F6000A2000030A300953168258F319430B10074
:101F70002130B20020083107B3002108323DB400FF
:101F80002D08330786002E08343D87003835603E23
:101F9000840001308500403F803F413F813F380849
:101FA000AD00AE01AD35AE0D4E302D07840098303A
:101FB0002E3D8500003FAF00013FB0003835603E48
:101FC0008600013087002F08810741313008813DAC
:101FD0007F313835603EA6000130A7003808AD00DB
:101FE000AE01AD35AE0D56302D07840098302E3D34
:101FF0008500003FA800013FA90088310B200800A0
:10208E000800080008000800080020001C150800C1
:10209E0020001C11080024001108080097319A270F
:1020AE00080096310F26080091109031B2200800DA
:1020BE00163021009700080020003D089331582368
:1020CE00080020003D08933146230800803022008E
:1020DE0098001F30990008007A30210099002200E4
:1020EE009601080021082200ED00200020082200A1
:1020FE00EC00080021082200E90020002008220040
:10210E00E8000800A1002108031D90288A31A622AC
:10211E0008008B3116230800A2002235AC3E860043
:10212E0087012008C03F2108C13F08002400940108
:10213E0014309500920121000D172400951208000D
:10214E002200680869040319080069088A006808F3
:10215E000A009031080022006C086D040319080073
:10216E006D088A006C080A0090310800A200223522
:10217E00203E8600013087002008C03F2108C13F65
:10218E000800111022006B08F6006A08F500913164
:10219E00142190319031A720080064008001013194
:1021AE000130FE020030FF3B7F087E04031900342D
:1021BE00D5289431D024903121005A0803190800F3
:1021CE00DA015230F7007708E20008002000921A78
:1021DE00F228121FF728921212139631F7260800D2
:1021EE009031E0200800B2003235A83E860087010B
:1021FE003008C03F3108C13F32088831C220080084
:10220E0014302200910090309200143093009030E0
:10221E00940020009212121308002000181D1E298F
:10222E00181076089700750896001814080076089E
:10223E0097007508960008002030F50075082000FC
:10224E00E700E601E50110302100CA001330CB0093
:10225E00D601D60A08001030F50075082000E700F8
:10226E00E601E501FE302100CA001230CB00D60196
:10227E00D60A08002030F50075082000E700E601B8
:10228E00E5018C302100CA001130CB00D601D60AF0
:10229E0008001030F50075082000E700E601E501A2
:1022AE007D302100CA001130CB00D601D60A0800BD
:1022BE000230F50075082000E700E601E501AA30BE
:1022CE002100CA001130CB00D601D60A080020002A
:1022DE00E701E6010230F5007508E5009B302100AC
:1022EE00CA001130CB00D601D60A08000230F50024
:1022FE0075082000E700E601E50114302100CA0050
:10230E001430CB00D601D60A08002000E701E60102
:10231E000230F5007508E5002B302100CA0014309C
:10232E00CB00D601D60A08002030F5007508200033
:10233E00E700E601E5018B302100CA001230CB0028
:10234E00D601D60A08001030F50075082000E70007
:10235E00E601E5019B302100CA001230CB00D60108
:10236E00D60A08002000DE01DD010230F5007508F6
:10237E00DC0070302100CA001430CB00D501D50A24
:10238E0008000230F50075082000DE00DD01DC01DA
:10239E0088302100CA001430CB00D501D50A0800C0
:1023AE002000E4012030F5007508E300E20134302E
:1023BE002100C8001330C900D601D60A080020003B
:1023CE00E4018030F5007508E300E20122302100BF
:1023DE00C8001330C900D601D60A08002000E40157
:1023EE002030F5007508E300E20140302100C800FE
:1023FE001230C900D601D60A08002000E401803050
:10240E00F5007508E300E20131302100C8001230FA
:10241E00C900D601D60A08002000E401E301043009
:10242E00F5007508E2005E302100C8001230C900C8
:10243E00D601D60A08002000E401E3010830F500B9
:10244E007508E2004F302100C8001230C900D601D5
:10245E00D60A08002000E401E3010430F5007508F7
:10246E00E20042302100C8001430C900D601D60A5D
:10247E0008002000E401E3010830F5007508E200D1
:10248E0059302100C8001430C900D601D60A080000
:10249E002000E4012030F5007508E300E201AB30C6
:1024AE002100C8001230C900D601D60A080020004B
:1024BE00E4018030F5007508E300E201BB30210035
:1024CE00C8001230C900D601D60A08002000DB0170
:1024DE00DA010830F5007508D900A0302100C800D7
:1024EE001430C900D501D50A08002000DB01DA013D
:1024FE000430F5007508D900B8302100C80014303A
:10250E00C900D501D50A08002000E701E601E50162
:10251E000130F5007508F1065F302100CA00113058
:10252E00CB00D601D60A08002000E701E601E5013E
:10253E000130F5007508F1066E302100CA00113029
:10254E00CB00D601D60A08002000E401E301E20127
:10255E000230F5007508F10613302100C800123064
:10256E00C900D601D60A08002000E401E301E20109
:10257E000230F5007508F10622302100C800123035
:10258E00C900D601D60A08002000A1002108031DAB
:10259E00D62A5B30A00020082100EC0008005B303A
:1025AE00A00020082100EB000800A300A201231CBC
:1025BE00E42A2008A1002108A2070310A00D031091
:1025CE00A30C2308031DDE2A22080800A2002208FD
:1025DE00A0002008EB000130A000220AF72AA03547
:1025EE00890BF62A2008A1002108F400080020001B
:1025FE00E701E601E501DE01DD01DC01B930210074
:10260E00CA001130CB00D601D60AD501D50A541412
:10261E0008002000E701E601E501DE01DD01DC0135
:10262E00C8302100CA001130CB00D601D60AD50120
:10263E00D50A541408002000E401E301E201DB0195
:10264E00DA01D9016D302100C8001230C900D6015F
:10265E00D60AD501D50AD41408002000E401E301FE
:10266E00E201DB01DA01D9017C302100C800123011
:10267E00C900D601D60AD501D50AD4140800A20085
:10268E000130A000220A4C2BA035890B4B2B2008C1
:10269E00A1002108F4007409A00020082100E30520
:1026AE000800A2000130A000220A5E2BA035890B83
:1026BE005D2B2008A1002108F4007408A00020085A
:1026CE002100E3040800A2000130A000220A702BB2
:1026DE00A035890B6F2B2008A1002108F400740887
:1026EE00A00020082100D8040800A2000130A0009C
:1026FE00220A822BA035890B812B2008A1002108EC
:10270E00F4007409A00020082100D1050800A200E1
:10271E000130A000220A942BA035890B932B2008A0
:10272E00A1002108F4007408A00020082100D104A3
:10273E0008002000911DAE2B911190315220933143
:10274E002100EF006F08CC008B31882393318B3141
:10275E00FB239331A02B793020009B009A0191101E
:10276E002100911448302000A0001030A1009031BB
:10277E007920053020009C000800F5007508031D27
:10278E00CE2B14302200910090309200D32B1430B7
:10279E002200930090309400200092121213080031
:1027AE00BC003C088531EB2593312000A001293077
:1027BE00BB003B08A1003C088831452093313C0802
:1027CE00903189200800A200A3010130A000220A46
:1027DE00F12BA035890BF02B2008A1002108F40065
:1027EE00560874050319FD2BA301A30A230808003C
:1027FE0090319D2093319531022593319031732084
:10280E00933190315F20933190316D20933193311C
:10281E00B223933195314E2508002000E701E601E1
:10282E00E5010130F5007508F106701C232C2330EC
:10283E002100CA001130272C41302100CA0011306E
:10284E00CB00D601D60A08002000E701E601E5011B
:10285E000130F5007508F106701C3A2C323021005B
:10286E00CA0011303E2C50302100CA001130CB006E
:10287E00D601D60A08002000E401E301E20102308D
:10288E00F5007508F106F01C512CD7302100C80058
:10289E001130552CF5302100C8001130C900D60179
:1028AE00D60A08002000E401E301E2010230F5003F
:1028BE007508F106F01C682CE6302100C8001130B6
:1028CE006C2C04302100C8001230C900D601D60A83
:1028DE0008002000DE01DD01DC0116307306031D49
:1028EE007F2C50302100CA001130CB005314842CA1
:1028FE00B9302100CA001130CB00D501D50A5214CF
:10290E0008002000DE01DD01DC0116307306031D18
:10291E00972C41302100CA001130CB0053149C2C4F
:10292E00C8302100CA001130CB00D501D50A52148F
:10293E0008002000DB01DA01D90116307206031DF2
:10294E00AF2C04302100C8001230C900D314B42CAF
:10295E006D302100C8001230C900D501D50AD2143D
:10296E0008002000DB01DA01D90116307206031DC2
:10297E00C72CF5302100C8001130C900D314CC2C5F
:10298E007C302100C8001230C900D501D50AD214FE
:10299E000800DE01DD012030F6007608DC00DB01E8
:1029AE00DA011030F6007608D900E701E601E501FC
:1029BE00E401E301E2018931CC21FB30F600760817
:1029CE008C050800A3000130A100230AEF2CA135CD
:1029DE00890BEE2C2108A2002208F4002003031D0F
:1029EE00FD2C7408A1002108D70408007409A10069
:1029FE002108D705080022008C018D018E010830B8
:102A0E0021008C0050308D0060308E000E3023007F
:102A1E008E008D0102308C0024008D018C0121006E
:102A2E00951722009D010800A3000130A100230A82
:102A3E00212DA135890B202D2108A2002208F4009A
:102A4E00200803192F2D7408A1002108F004080096
:102A5E007409A1002108F0050800F6007608031D90
:102A6E00432D2000921E402D0130F50075082100E7
:102A7E00BC072000921208002000121F4B2D0130BF
:102A8E00F50075082100BD072000121308009901FA
:102A9E0086309700E8309600111017082200EB00E0
:102AAE00200016082200EA002100111447302000F1
:102ABE00A0001030A10090318120C130200098007C
:102ACE000800A401A501201C702D2208A4072308CC
:102ADE00A53D0130A235A30D890B712D0130A13614
:102AEE00A00C890B762D20082104031D6A2D2508C4
:102AFE00A1002408A0000800F5007508031D932D01
:102B0E00943022009100711C8E2D90308F2D9130BB
:102B1E009200200092120800943022009300F11CC3
:102B2E009A2D92309B2D93309400200012130800A2
:102B3E002000DE01DD01DC01DB01DA01D901C83044
:102B4E002100C2001730C300DF01DE01DE0A5B0880
:102B5E00031D08005C08031DB92D0330F500750830
:102B6E00DD040800DC0108002000DE01DD0120305C
:102B7E00A1002108DC00DB01DA011030A1002108E0
:102B8E00D900E701E601E501E401E301E2018A3142
:102B9E003922FB302000A100210822008C050800FC
:102BAE00033021005106031D080022000E140630CA
:102BBE002000BE003030890BE22DBE0BE22D00004E
:102BCE0022000E1006302000BE003030890BED2D95
:102BDE00BE0BED2D0000080020003D089331EA23C6
:102BEE009531003A0319082E3D0893316A23953129
:102BFE0082302000A0000830A1003D0890319320C3
:102C0E0008003D08BE003E08BD0088318220080045
:102C1E00FE302000A200220822008C0590314F20A9
:102C2E00963191109131072196312100C401C501D1
:102C3E00E201DB01DA019531BB259631FA30200035
:102C4E00A0000330A100903179200800B00030358B
:102C5E00243E8600013087000030C03FC13F303532
:102C6E006C3E860087010030C03FC13F30088E3178
:102C7E001A2696315D30A0000030A1003008903148
:102C8E00BD20963130089031892008002000A00127
:102C9E003D088D318525963101302000AD00003084
:102CAE00AE003D089631B12696313D088531EB25B3
:102CBE00963102302000BE003E08A000A1013D0862
:102CCE008831452096313D0890318920080020003A
:102CDE00A0013D088D3185259631FF302000AD00D5
:102CEE00FF30AE003D089631B12696313D08853154
:102CFE00EB25963102302000BE003E08A000A10157
:102D0E003D088831452096313D08903189200800D4
:102D1E002000A0013D088D31852596312000A001AF
:102D2E003D089431E92496310130B0000030B100F5
:102D3E003D089031FA20963102302000BE003E0848
:102D4E00A000A1013D088831452096313D08903103
:102D5E0089200800B1003135643E860001308700BD
:102D6E002D08810741312E08813D7F313135643E7A
:102D7E00A6000130A7003108AF00B001AF35B00D8D
:102D8E0056302F0784009830303D8500003FA80054
:102D9E00013FA90088310B2008002000A0013D084A
:102DAE008D31852596312000A001A00A3D08943171
:102DBE00E92496310130B0000030B1003D08903169
:102DCE00FA20963102302000BE003E08A000A1017C
:102DDE003D088831452096313D0890318920080004
:102DEE00DE01DD012030F6007608DC00DB01DA01C1
:102DFE001030F6007608D9001030F6007608E7009D
:102E0E00E601E501E4018030F6007608E300E20118
:102E1E008931CC210C152100DB01DB0ADA01DA0A3B
:102E2E000530C4002030C500080020003D08933155
:102E3E007C2397312000A001A00A3D088D31852505
:102E4E0097312000A001A00A3D089431E924973162
:102E5E000030B000B1003D089031FA2097312000CB
:102E6E00A001A00A8830BE003E08A1003D088831AE
:102E7E00452097313D0896312D260800B2000130CD
:102E8E00B000320A4B2FB035890B4A2F3008B100F3
:102E9E003108F4007408B0003008D4047408B0008F
:102EAE0030082100CF0420003235243E8600013048
:102EBE0087000030C03FC13F32088E311A2697314D
:102ECE005D30A0000030A10032089031BD20080016
:102EDE0020003D0893317C23973105302000BE0041
:102EEE003E08A0003D088D31852597312000A001B8
:102EFE00A00A3D089431E92497310030B000B100AA
:102F0E003D089031FA2097312000A001A00A8830A8
:102F1E00BE003E08A1003D088831452097313D088E
:102F2E0096312D2608002100630803390319C52F99
:102F3E0022000C1484302000A0000730A100903134
:102F4E0079209731200091102100E1012000DE014F
:102F5E00DD01DC01DB01DA01D9012100DE01DE0A2F
:102F6E008831002097312100E001DF01DF0A9F3018
:102F7E00C2001530C30090314C2008009531BB259E
:102F8E0008006108031DDD2F2000DE01DD01023087
:102F9E00F5007508DC00DB01DA010830F500750874
:102FAE00D9009130220092009330EE2F0230F500BE
:102FBE0075082000DE00DD01DC01DB01DA010430E2
:102FCE00F5007508D90090302200920092309400DE
:102FDE009F302100C2001530C300DF01DF0A01302F
:102FEE00F5007508E1065B08031D0800DE01DE0A28
:102FFE00080049341034D43416348F3416344A341D
:10300E0010344B3410341C341734F33415344D341F
:10301E0016346E3416345534103458341034633438
:10302E001034683410346F341734013406340A34D3
:10303E000B340E340F3412341334163417341A344E
:10304E001B341E341F3422342334263427342A34BE
:10305E002B342E342F343234383448340134063481
:10306E000A340B340E340F3412341334163417342E
:10307E001A341B341E341F3422342334263427349E
:10308E002A342B342E342F34323438344834E83446
:10309E00FF34F034FF3438340434383404346834B4
:0E30AE00013468340134143400340034013429
:020000040001F9
:04000E00E43FFF1FAD
:00000001FF
